{
  "contractName": "Autorite",
  "abi": [
    {
      "inputs": [],
      "payable": false,
      "stateMutability": "nonpayable",
      "type": "constructor"
    },
    {
      "anonymous": false,
      "inputs": [
        {
          "indexed": true,
          "internalType": "address",
          "name": "orga",
          "type": "address"
        },
        {
          "indexed": true,
          "internalType": "address",
          "name": "pub",
          "type": "address"
        },
        {
          "indexed": false,
          "internalType": "string",
          "name": "nom",
          "type": "string"
        },
        {
          "indexed": true,
          "internalType": "uint256",
          "name": "etat",
          "type": "uint256"
        }
      ],
      "name": "ajouterOrganEven",
      "type": "event"
    },
    {
      "anonymous": false,
      "inputs": [
        {
          "indexed": true,
          "internalType": "address",
          "name": "org",
          "type": "address"
        },
        {
          "indexed": true,
          "internalType": "address",
          "name": "addrOrg",
          "type": "address"
        },
        {
          "indexed": false,
          "internalType": "string",
          "name": "nom",
          "type": "string"
        },
        {
          "indexed": true,
          "internalType": "uint256",
          "name": "etat",
          "type": "uint256"
        }
      ],
      "name": "enleverOrganEven",
      "type": "event"
    },
    {
      "constant": true,
      "inputs": [],
      "name": "owner",
      "outputs": [
        {
          "internalType": "address",
          "name": "",
          "type": "address"
        }
      ],
      "payable": false,
      "stateMutability": "view",
      "type": "function"
    },
    {
      "constant": false,
      "inputs": [
        {
          "internalType": "address",
          "name": "organisation",
          "type": "address"
        },
        {
          "internalType": "address",
          "name": "addr",
          "type": "address"
        },
        {
          "internalType": "string",
          "name": "_orga",
          "type": "string"
        }
      ],
      "name": "ajouterOrganisation",
      "outputs": [],
      "payable": false,
      "stateMutability": "nonpayable",
      "type": "function"
    },
    {
      "constant": false,
      "inputs": [
        {
          "internalType": "address",
          "name": "orga",
          "type": "address"
        },
        {
          "internalType": "address",
          "name": "addrOrg",
          "type": "address"
        },
        {
          "internalType": "string",
          "name": "ch",
          "type": "string"
        }
      ],
      "name": "enleverOrganisation",
      "outputs": [],
      "payable": false,
      "stateMutability": "nonpayable",
      "type": "function"
    },
    {
      "constant": true,
      "inputs": [
        {
          "internalType": "string",
          "name": "nom",
          "type": "string"
        }
      ],
      "name": "retournerAdress",
      "outputs": [
        {
          "internalType": "address",
          "name": "",
          "type": "address"
        }
      ],
      "payable": false,
      "stateMutability": "view",
      "type": "function"
    },
    {
      "constant": true,
      "inputs": [
        {
          "internalType": "address",
          "name": "nom",
          "type": "address"
        }
      ],
      "name": "retournerAdresse",
      "outputs": [
        {
          "internalType": "address",
          "name": "",
          "type": "address"
        }
      ],
      "payable": false,
      "stateMutability": "view",
      "type": "function"
    }
  ],
  "bytecode": "0x608060405234801561001057600080fd5b50336000806101000a81548173ffffffffffffffffffffffffffffffffffffffff021916908373ffffffffffffffffffffffffffffffffffffffff160217905550610c94806100606000396000f3fe608060405234801561001057600080fd5b50600436106100575760003560e01c80632c5a07851461005c578063770dfe6f146101575780638da5cb5b14610252578063901a09b11461029c578063fe344f7814610397575b600080fd5b6101156004803603602081101561007257600080fd5b810190808035906020019064010000000081111561008f57600080fd5b8201836020820111156100a157600080fd5b803590602001918460018302840111640100000000831117156100c357600080fd5b91908080601f016020809104026020016040519081016040528093929190818152602001838380828437600081840152601f19601f82011690508083019250505050505050919291929050505061041b565b604051808273ffffffffffffffffffffffffffffffffffffffff1673ffffffffffffffffffffffffffffffffffffffff16815260200191505060405180910390f35b6102506004803603606081101561016d57600080fd5b81019080803573ffffffffffffffffffffffffffffffffffffffff169060200190929190803573ffffffffffffffffffffffffffffffffffffffff169060200190929190803590602001906401000000008111156101ca57600080fd5b8201836020820111156101dc57600080fd5b803590602001918460018302840111640100000000831117156101fe57600080fd5b91908080601f016020809104026020016040519081016040528093929190818152602001838380828437600081840152601f19601f8201169050808301925050505050505091929192905050506104ae565b005b61025a610850565b604051808273ffffffffffffffffffffffffffffffffffffffff1673ffffffffffffffffffffffffffffffffffffffff16815260200191505060405180910390f35b610395600480360360608110156102b257600080fd5b81019080803573ffffffffffffffffffffffffffffffffffffffff169060200190929190803573ffffffffffffffffffffffffffffffffffffffff1690602001909291908035906020019064010000000081111561030f57600080fd5b82018360208201111561032157600080fd5b8035906020019184600183028401116401000000008311171561034357600080fd5b91908080601f016020809104026020016040519081016040528093929190818152602001838380828437600081840152601f19601f820116905080830192505050505050509192919290505050610875565b005b6103d9600480360360208110156103ad57600080fd5b81019080803573ffffffffffffffffffffffffffffffffffffffff169060200190929190505050610bf3565b604051808273ffffffffffffffffffffffffffffffffffffffff1673ffffffffffffffffffffffffffffffffffffffff16815260200191505060405180910390f35b60006002826040518082805190602001908083835b602083106104535780518252602082019150602081019050602083039250610430565b6001836020036101000a038019825116818451168082178552505050505050905001915050908152602001604051809103902060009054906101000a900473ffffffffffffffffffffffffffffffffffffffff169050919050565b60011515600160008573ffffffffffffffffffffffffffffffffffffffff1673ffffffffffffffffffffffffffffffffffffffff16815260200190815260200160002060010160149054906101000a900460ff16151514610577576040517f08c379a00000000000000000000000000000000000000000000000000000000081526004018080602001828103825260198152602001807f6f7267616e69736174696f6e206e27657869737465207061730000000000000081525060200191505060405180910390fd5b600073ffffffffffffffffffffffffffffffffffffffff168373ffffffffffffffffffffffffffffffffffffffff1614158015610646575060405160200180600001905060405160208183030381529060405280519060200120816040516020018082805190602001908083835b6020831061060857805182526020820191506020810190506020830392506105e5565b6001836020036101000a0380198251168184511680821785525050505050509050019150506040516020818303038152906040528051906020012014155b61064f57600080fd5b60008273ffffffffffffffffffffffffffffffffffffffff168473ffffffffffffffffffffffffffffffffffffffff167fd7f3fbad079e44e88e713e66939a8591fed39d2bd9471adaaeb8fece9004a156846040518080602001828103825283818151815260200191508051906020019080838360005b838110156106e15780820151818401526020810190506106c6565b50505050905090810190601f16801561070e5780820380516001836020036101000a031916815260200191505b509250505060405180910390a4600160008473ffffffffffffffffffffffffffffffffffffffff1673ffffffffffffffffffffffffffffffffffffffff168152602001908152602001600020600080820160006101000a81549073ffffffffffffffffffffffffffffffffffffffff02191690556001820160006101000a81549073ffffffffffffffffffffffffffffffffffffffff02191690556001820160146101000a81549060ff021916905550506002816040518082805190602001908083835b602083106107f557805182526020820191506020810190506020830392506107d2565b6001836020036101000a038019825116818451168082178552505050505050905001915050908152602001604051809103902060006101000a81549073ffffffffffffffffffffffffffffffffffffffff0219169055505050565b6000809054906101000a900473ffffffffffffffffffffffffffffffffffffffff1681565b8160001515600160008373ffffffffffffffffffffffffffffffffffffffff1673ffffffffffffffffffffffffffffffffffffffff16815260200190815260200160002060010160149054906101000a900460ff1615151461093f576040517f08c379a000000000000000000000000000000000000000000000000000000000815260040180806020018281038252600c8152602001807f64656a61206578697374c3a9000000000000000000000000000000000000000081525060200191505060405180910390fd5b836002836040518082805190602001908083835b602083106109765780518252602082019150602081019050602083039250610953565b6001836020036101000a038019825116818451168082178552505050505050905001915050908152602001604051809103902060006101000a81548173ffffffffffffffffffffffffffffffffffffffff021916908373ffffffffffffffffffffffffffffffffffffffff16021790555060405180606001604052808573ffffffffffffffffffffffffffffffffffffffff1681526020018473ffffffffffffffffffffffffffffffffffffffff16815260200160011515815250600160008573ffffffffffffffffffffffffffffffffffffffff1673ffffffffffffffffffffffffffffffffffffffff16815260200190815260200160002060008201518160000160006101000a81548173ffffffffffffffffffffffffffffffffffffffff021916908373ffffffffffffffffffffffffffffffffffffffff16021790555060208201518160010160006101000a81548173ffffffffffffffffffffffffffffffffffffffff021916908373ffffffffffffffffffffffffffffffffffffffff16021790555060408201518160010160146101000a81548160ff02191690831515021790555090505060018373ffffffffffffffffffffffffffffffffffffffff168573ffffffffffffffffffffffffffffffffffffffff167f3d595bc506c57b85cc74b1dde14c36b11a6f1d847e011b4c79c1851b9447db33856040518080602001828103825283818151815260200191508051906020019080838360005b83811015610bb3578082015181840152602081019050610b98565b50505050905090810190601f168015610be05780820380516001836020036101000a031916815260200191505b509250505060405180910390a450505050565b6000600160008373ffffffffffffffffffffffffffffffffffffffff1673ffffffffffffffffffffffffffffffffffffffff16815260200190815260200160002060000160009054906101000a900473ffffffffffffffffffffffffffffffffffffffff16905091905056fea265627a7a7231582046bf67d12961e5dfaf3a89c5c6f3a1da1d34d9610d4d0b9eda1692b3d9a5252664736f6c63430005100032",
  "source": "pragma solidity ^0.5.16;\r\n\r\ncontract Autorite{\r\n    address public owner;\r\n \r\n  struct organisations{\r\n        address organis;\r\n        address pub;\r\n        bool estEnregis;    \r\n    }\r\n\t\r\n    constructor() public {\r\n        owner = msg.sender;\r\n          \r\n    }\r\n   \r\n    mapping(address=>organisations) stokOr;\r\n    mapping(string=>address)chain;\r\n\r\n    modifier organisaExiste(address organ){\r\n        require(stokOr[organ].estEnregis==false,\"deja existé\");\r\n        _;\r\n    }\r\n    \r\n    event ajouterOrganEven(address indexed orga,address indexed pub,string nom, uint indexed etat);\r\n\tevent enleverOrganEven(address indexed org, address indexed addrOrg,string nom,uint indexed etat);\r\n\t\r\n    function ajouterOrganisation(address organisation, address addr,string memory _orga)public organisaExiste(addr){\r\n        chain[_orga]=organisation;\r\n        stokOr[addr]=organisations({organis:organisation, pub:addr, estEnregis:true});\r\n        emit ajouterOrganEven(organisation, addr,_orga,1);  \r\n    }\r\n\t\r\n\tfunction enleverOrganisation(address orga, address addrOrg,string memory ch)public{\r\n\t    require(stokOr[orga].estEnregis==true,\"organisation n'existe pas\");\r\n\t    require(orga!=address(0) && keccak256(abi.encodePacked(ch)) != keccak256(abi.encodePacked(\"\")));\r\n        emit enleverOrganEven(orga,addrOrg,ch,0);  \r\n\t\tdelete stokOr[orga];\r\n\t    delete chain[ch];\r\n    }\r\n\t\r\n    function retournerAdress(string memory nom) view public returns(address){\r\n        return chain[nom];\r\n    }\r\n    \t\r\n    function retournerAdresse(address nom)view public returns(address){\r\n        return stokOr[nom].organis;\r\n    }\r\n}",
  "sourcePath": "C:\\Users\\judelin\\Desktop\\ProjetIft\\Autorite\\contracts\\Autorite.sol",
  "compiler": {
    "name": "solc",
    "version": "0.5.16+commit.9c3226ce.Emscripten.clang"
  },
  "schemaVersion": "3.0.23",
  "updatedAt": "2020-06-04T01:44:44.743Z",
  "devdoc": {
    "methods": {}
  },
  "userdoc": {
    "methods": {}
  }
}