{
  "contractName": "Organisation",
  "abi": [
    {
      "inputs": [],
      "payable": false,
      "stateMutability": "nonpayable",
      "type": "constructor"
    },
    {
      "anonymous": false,
      "inputs": [
        {
          "indexed": true,
          "internalType": "address",
          "name": "organisa",
          "type": "address"
        },
        {
          "indexed": true,
          "internalType": "uint256",
          "name": "etatDoc",
          "type": "uint256"
        },
        {
          "indexed": false,
          "internalType": "uint256",
          "name": "date",
          "type": "uint256"
        },
        {
          "indexed": true,
          "internalType": "bytes32",
          "name": "hash",
          "type": "bytes32"
        }
      ],
      "name": "ajouteDocEvent",
      "type": "event"
    },
    {
      "anonymous": false,
      "inputs": [
        {
          "indexed": true,
          "internalType": "uint256",
          "name": "etatDoc",
          "type": "uint256"
        },
        {
          "indexed": true,
          "internalType": "bytes32",
          "name": "hash",
          "type": "bytes32"
        }
      ],
      "name": "enleverDocEvent",
      "type": "event"
    },
    {
      "constant": true,
      "inputs": [],
      "name": "etat",
      "outputs": [
        {
          "internalType": "uint256",
          "name": "",
          "type": "uint256"
        }
      ],
      "payable": false,
      "stateMutability": "view",
      "type": "function"
    },
    {
      "constant": true,
      "inputs": [],
      "name": "org_adr",
      "outputs": [
        {
          "internalType": "address",
          "name": "",
          "type": "address"
        }
      ],
      "payable": false,
      "stateMutability": "view",
      "type": "function"
    },
    {
      "constant": false,
      "inputs": [
        {
          "internalType": "bytes32",
          "name": "hash",
          "type": "bytes32"
        }
      ],
      "name": "ajouterDoc",
      "outputs": [],
      "payable": false,
      "stateMutability": "nonpayable",
      "type": "function"
    },
    {
      "constant": false,
      "inputs": [
        {
          "internalType": "bytes32",
          "name": "hash",
          "type": "bytes32"
        }
      ],
      "name": "enleverDoc",
      "outputs": [],
      "payable": false,
      "stateMutability": "nonpayable",
      "type": "function"
    },
    {
      "constant": true,
      "inputs": [
        {
          "internalType": "bytes32",
          "name": "hash",
          "type": "bytes32"
        }
      ],
      "name": "verifierDoc",
      "outputs": [
        {
          "internalType": "bool",
          "name": "",
          "type": "bool"
        }
      ],
      "payable": false,
      "stateMutability": "view",
      "type": "function"
    }
  ],
  "bytecode": "0x608060405234801561001057600080fd5b50336000806101000a81548173ffffffffffffffffffffffffffffffffffffffff021916908373ffffffffffffffffffffffffffffffffffffffff1602179055506104a7806100606000396000f3fe608060405234801561001057600080fd5b50600436106100575760003560e01c8063025f5fb91461005c5780633a8170a31461008a57806355fbf9c4146100d4578063a2287c8614610102578063c50f435d14610120575b600080fd5b6100886004803603602081101561007257600080fd5b8101908080359060200190929190505050610166565b005b6100926102ab565b604051808273ffffffffffffffffffffffffffffffffffffffff1673ffffffffffffffffffffffffffffffffffffffff16815260200191505060405180910390f35b610100600480360360208110156100ea57600080fd5b81019080803590602001909291905050506102d0565b005b61010a61043b565b6040518082815260200191505060405180910390f35b61014c6004803603602081101561013657600080fd5b8101908080359060200190929190505050610441565b604051808215151515815260200191505060405180910390f35b80600015156002600083815260200190815260200160002060009054906101000a900460ff16151514610201576040517f08c379a00000000000000000000000000000000000000000000000000000000081526004018080602001828103825260208152602001807f646f63756d656e742064656a612064616e73206c6120626c6f636b636861696e81525060200191505060405180910390fd5b6001808190555060016002600084815260200190815260200160002060006101000a81548160ff021916908315150217905550816001546000809054906101000a900473ffffffffffffffffffffffffffffffffffffffff1673ffffffffffffffffffffffffffffffffffffffff167f4c3524511d8957a6c854e263c64e4bc8bb26fe09b2a1456db5ccd91106efb83a426040518082815260200191505060405180910390a45050565b6000809054906101000a900473ffffffffffffffffffffffffffffffffffffffff1681565b600115156002600083815260200190815260200160002060009054906101000a900460ff1615151461036a576040517f08c379a00000000000000000000000000000000000000000000000000000000081526004018080602001828103825260148152602001807f446f63756d656e74206578697374652064656a6100000000000000000000000081525060200191505060405180910390fd5b60006001819055506002600082815260200190815260200160002060006101000a81549060ff0219169055806001546000809054906101000a900473ffffffffffffffffffffffffffffffffffffffff1673ffffffffffffffffffffffffffffffffffffffff167f4c3524511d8957a6c854e263c64e4bc8bb26fe09b2a1456db5ccd91106efb83a426040518082815260200191505060405180910390a4806001547f16e7707325745a21ba0c3b1f0f879c796bd1a824c792026dce43b69c108127c160405160405180910390a350565b60015481565b6000600115156002600084815260200190815260200160002060009054906101000a900460ff16151514905091905056fea265627a7a72315820519125fa444929510124a6730a4c0660945839892736a8760dcb206c5fc71e5a64736f6c63430005100032",
  "source": "pragma solidity ^0.5.16;\n\ncontract Organisation{\n   address public org_adr;\n \n   constructor() public {\n        org_adr = msg.sender;\n    }\n    \n    uint public etat;\n    mapping(bytes32=>bool) docums;\n  \n    event ajouteDocEvent(address indexed organisa,uint indexed etatDoc, uint date, bytes32 indexed hash);\n    event enleverDocEvent(uint indexed etatDoc, bytes32 indexed hash);\n   \n    modifier onlyOrganisa() { // déclaration du modificateur\n         require(msg.sender==org_adr,\"vous n'etes pas proprietaires\");\n        _;\n    }\n\t\n   modifier hashExiste(bytes32 hash){\n       require(docums[hash]==false,\"document deja dans la blockchain\");\n       _;\n       \n   }\n    function ajouterDoc(bytes32 hash) external hashExiste(hash)  {// require non organisation de preference\n      \n       //require(org_adr==msg.sender,\"Vous n'etes pas le proprietaires\");\n       etat=1;\n       docums[hash]=true;\n       emit ajouteDocEvent(org_adr,etat,now,hash);\n     }\n     \n    function enleverDoc(bytes32 hash) external {// require non organisation de preference\n       // require(org_adr==msg.sender,\"Vous n'etes pas le proprietaires\");\n        require(docums[hash]==true,\"Document existe deja\");\n        etat=0;\n        delete docums[hash];\n\n        emit ajouteDocEvent(org_adr,etat,now,hash);\n\t\temit enleverDocEvent(etat,hash);\n     }\n    \n    function verifierDoc(bytes32 hash)  view external returns(bool){\n        return docums[hash]==true;\n      \n  }\n  \n}",
  "sourcePath": "C:\\Users\\judelin\\Desktop\\ProjetIft\\Organisations\\contracts\\Organisation.sol",
  "compiler": {
    "name": "solc",
    "version": "0.5.16+commit.9c3226ce.Emscripten.clang"
  },
  "schemaVersion": "3.0.23",
  "updatedAt": "2020-06-03T23:59:13.407Z",
  "networkType": "ethereum",
  "devdoc": {
    "methods": {}
  },
  "userdoc": {
    "methods": {}
  }
}